{
	"_format": "hh-sol-artifact-1",
	"contractName": "PhotosPortal",
	"sourceName": "contracts/PhotosPortal.sol",
	"abi": [
		{
			"inputs": [],
			"stateMutability": "payable",
			"type": "constructor"
		},
		{
			"anonymous": false,
			"inputs": [
				{
					"indexed": true,
					"internalType": "address",
					"name": "from",
					"type": "address"
				},
				{
					"indexed": false,
					"internalType": "string",
					"name": "message",
					"type": "string"
				}
			],
			"name": "NewETHWinner",
			"type": "event"
		},
		{
			"anonymous": false,
			"inputs": [
				{
					"indexed": true,
					"internalType": "address",
					"name": "from",
					"type": "address"
				},
				{
					"indexed": false,
					"internalType": "uint256",
					"name": "timestamp",
					"type": "uint256"
				},
				{
					"indexed": false,
					"internalType": "string",
					"name": "caption",
					"type": "string"
				},
				{
					"indexed": false,
					"internalType": "string",
					"name": "src",
					"type": "string"
				}
			],
			"name": "NewPhoto",
			"type": "event"
		},
		{
			"inputs": [],
			"name": "getPhotos",
			"outputs": [
				{
					"components": [
						{
							"internalType": "address",
							"name": "publisher",
							"type": "address"
						},
						{
							"internalType": "string",
							"name": "src",
							"type": "string"
						},
						{
							"internalType": "string",
							"name": "caption",
							"type": "string"
						},
						{
							"internalType": "uint256",
							"name": "timestamp",
							"type": "uint256"
						}
					],
					"internalType": "struct PhotosPortal.Photo[]",
					"name": "",
					"type": "tuple[]"
				}
			],
			"stateMutability": "view",
			"type": "function"
		},
		{
			"inputs": [
				{
					"internalType": "address",
					"name": "",
					"type": "address"
				}
			],
			"name": "lastUploaded",
			"outputs": [
				{
					"internalType": "uint256",
					"name": "",
					"type": "uint256"
				}
			],
			"stateMutability": "view",
			"type": "function"
		},
		{
			"inputs": [
				{
					"internalType": "string",
					"name": "_src",
					"type": "string"
				},
				{
					"internalType": "string",
					"name": "_caption",
					"type": "string"
				}
			],
			"name": "uploadPhoto",
			"outputs": [],
			"stateMutability": "nonpayable",
			"type": "function"
		}
	],
	"bytecode": "0x6080604052606444426200001491906200002c565b62000020919062000093565b60008190555062000129565b6000620000398262000089565b9150620000468362000089565b9250827fffffffffffffffffffffffffffffffffffffffffffffffffffffffffffffffff038211156200007e576200007d620000cb565b5b828201905092915050565b6000819050919050565b6000620000a08262000089565b9150620000ad8362000089565b925082620000c057620000bf620000fa565b5b828206905092915050565b7f4e487b7100000000000000000000000000000000000000000000000000000000600052601160045260246000fd5b7f4e487b7100000000000000000000000000000000000000000000000000000000600052601260045260246000fd5b610fae80620001396000396000f3fe608060405234801561001057600080fd5b50600436106100415760003560e01c80631e5db3be146100465780632bfbbb7e14610062578063c0c0791214610092575b600080fd5b610060600480360381019061005b9190610788565b6100b0565b005b61007c6004803603810190610077919061075f565b610444565b6040516100899190610aec565b60405180910390f35b61009a61045c565b6040516100a79190610a4a565b60405180910390f35b42601e600260003373ffffffffffffffffffffffffffffffffffffffff1673ffffffffffffffffffffffffffffffffffffffff168152602001908152602001600020546100fd9190610c13565b1061013d576040517f08c379a000000000000000000000000000000000000000000000000000000000815260040161013490610acc565b60405180910390fd5b42600260003373ffffffffffffffffffffffffffffffffffffffff1673ffffffffffffffffffffffffffffffffffffffff16815260200190815260200160002081905550600160405180608001604052803373ffffffffffffffffffffffffffffffffffffffff16815260200184815260200183815260200142815250908060018154018082558091505060019003906000526020600020906004020160009091909190915060008201518160000160006101000a81548173ffffffffffffffffffffffffffffffffffffffff021916908373ffffffffffffffffffffffffffffffffffffffff160217905550602082015181600101908051906020019061024692919061063f565b50604082015181600201908051906020019061026392919061063f565b506060820151816003015550503373ffffffffffffffffffffffffffffffffffffffff167faba42eec9c2326d2cadb6975bd4e630122c4cb8f35bb0f72a0f9df1b3c5f472e4283856040516102ba93929190610b07565b60405180910390a2606460005442446102d39190610c13565b6102dd9190610c13565b6102e79190610d4a565b600081905550605f60005411610440576000655af3107a400090503373ffffffffffffffffffffffffffffffffffffffff167f310576e2f421aa5d6c79982dbb8e2ced040b5013af5f6bcf69880aab0937fa6860405161034690610aac565b60405180910390a247811115610391576040517f08c379a000000000000000000000000000000000000000000000000000000000815260040161038890610a6c565b60405180910390fd5b60003373ffffffffffffffffffffffffffffffffffffffff16826040516103b790610a35565b60006040518083038185875af1925050503d80600081146103f4576040519150601f19603f3d011682016040523d82523d6000602084013e6103f9565b606091505b505090508061043d576040517f08c379a000000000000000000000000000000000000000000000000000000000815260040161043490610a8c565b60405180910390fd5b50505b5050565b60026020528060005260406000206000915090505481565b60606001805480602002602001604051908101604052809291908181526020016000905b8282101561063657838290600052602060002090600402016040518060800160405290816000820160009054906101000a900473ffffffffffffffffffffffffffffffffffffffff1673ffffffffffffffffffffffffffffffffffffffff1673ffffffffffffffffffffffffffffffffffffffff16815260200160018201805461050990610ce7565b80601f016020809104026020016040519081016040528092919081815260200182805461053590610ce7565b80156105825780601f1061055757610100808354040283529160200191610582565b820191906000526020600020905b81548152906001019060200180831161056557829003601f168201915b5050505050815260200160028201805461059b90610ce7565b80601f01602080910402602001604051908101604052809291908181526020018280546105c790610ce7565b80156106145780601f106105e957610100808354040283529160200191610614565b820191906000526020600020905b8154815290600101906020018083116105f757829003601f168201915b5050505050815260200160038201548152505081526020019060010190610480565b50505050905090565b82805461064b90610ce7565b90600052602060002090601f01602090048101928261066d57600085556106b4565b82601f1061068657805160ff19168380011785556106b4565b828001600101855582156106b4579182015b828111156106b3578251825591602001919060010190610698565b5b5090506106c191906106c5565b5090565b5b808211156106de5760008160009055506001016106c6565b5090565b60006106f56106f084610b71565b610b4c565b90508281526020810184848401111561070d57600080fd5b610718848285610ca5565b509392505050565b60008135905061072f81610f61565b92915050565b600082601f83011261074657600080fd5b81356107568482602086016106e2565b91505092915050565b60006020828403121561077157600080fd5b600061077f84828501610720565b91505092915050565b6000806040838503121561079b57600080fd5b600083013567ffffffffffffffff8111156107b557600080fd5b6107c185828601610735565b925050602083013567ffffffffffffffff8111156107de57600080fd5b6107ea85828601610735565b9150509250929050565b600061080083836109ad565b905092915050565b61081181610c69565b82525050565b600061082282610bb2565b61082c8185610bd5565b93508360208202850161083e85610ba2565b8060005b8581101561087a578484038952815161085b85826107f4565b945061086683610bc8565b925060208a01995050600181019050610842565b50829750879550505050505092915050565b600061089782610bbd565b6108a18185610bf1565b93506108b1818560208601610cb4565b6108ba81610e37565b840191505092915050565b60006108d082610bbd565b6108da8185610c02565b93506108ea818560208601610cb4565b6108f381610e37565b840191505092915050565b600061090b603483610c02565b915061091682610e48565b604082019050919050565b600061092e602783610c02565b915061093982610e97565b604082019050919050565b6000610951600d83610c02565b915061095c82610ee6565b602082019050919050565b6000610974600083610be6565b915061097f82610f0f565b600082019050919050565b6000610997603483610c02565b91506109a282610f12565b604082019050919050565b60006080830160008301516109c56000860182610808565b50602083015184820360208601526109dd828261088c565b915050604083015184820360408601526109f7828261088c565b9150506060830151610a0c6060860182610a17565b508091505092915050565b610a2081610c9b565b82525050565b610a2f81610c9b565b82525050565b6000610a4082610967565b9150819050919050565b60006020820190508181036000830152610a648184610817565b905092915050565b60006020820190508181036000830152610a85816108fe565b9050919050565b60006020820190508181036000830152610aa581610921565b9050919050565b60006020820190508181036000830152610ac581610944565b9050919050565b60006020820190508181036000830152610ae58161098a565b9050919050565b6000602082019050610b016000830184610a26565b92915050565b6000606082019050610b1c6000830186610a26565b8181036020830152610b2e81856108c5565b90508181036040830152610b4281846108c5565b9050949350505050565b6000610b56610b67565b9050610b628282610d19565b919050565b6000604051905090565b600067ffffffffffffffff821115610b8c57610b8b610e08565b5b610b9582610e37565b9050602081019050919050565b6000819050602082019050919050565b600081519050919050565b600081519050919050565b6000602082019050919050565b600082825260208201905092915050565b600081905092915050565b600082825260208201905092915050565b600082825260208201905092915050565b6000610c1e82610c9b565b9150610c2983610c9b565b9250827fffffffffffffffffffffffffffffffffffffffffffffffffffffffffffffffff03821115610c5e57610c5d610d7b565b5b828201905092915050565b6000610c7482610c7b565b9050919050565b600073ffffffffffffffffffffffffffffffffffffffff82169050919050565b6000819050919050565b82818337600083830152505050565b60005b83811015610cd2578082015181840152602081019050610cb7565b83811115610ce1576000848401525b50505050565b60006002820490506001821680610cff57607f821691505b60208210811415610d1357610d12610dd9565b5b50919050565b610d2282610e37565b810181811067ffffffffffffffff82111715610d4157610d40610e08565b5b80604052505050565b6000610d5582610c9b565b9150610d6083610c9b565b925082610d7057610d6f610daa565b5b828206905092915050565b7f4e487b7100000000000000000000000000000000000000000000000000000000600052601160045260246000fd5b7f4e487b7100000000000000000000000000000000000000000000000000000000600052601260045260246000fd5b7f4e487b7100000000000000000000000000000000000000000000000000000000600052602260045260246000fd5b7f4e487b7100000000000000000000000000000000000000000000000000000000600052604160045260246000fd5b6000601f19601f8301169050919050565b7f547279696e6720746f207769746864726177206d6f7265206d6f6e657920746860008201527f616e2074686520636f6e7472616374206861732e000000000000000000000000602082015250565b7f4661696c656420746f207769746864726177206d6f6e65792066726f6d20636f60008201527f6e74726163742e00000000000000000000000000000000000000000000000000602082015250565b7f7265636569766564204554482100000000000000000000000000000000000000600082015250565b50565b7f4d7573742077616974203330207365636f6e6473206265666f72652075706c6f60008201527f6164696e6720616e6f746865722070686f746f2e000000000000000000000000602082015250565b610f6a81610c69565b8114610f7557600080fd5b5056fea26469706673582212209b2f3ecee1bd1755c63e1af18bdfe7d9c2b4b2e873fb129c14261e0f36f4dda364736f6c63430008040033",
	"linkReferences": {},
	"deployedLinkReferences": {}
}