{
	"_format": "hh-sol-artifact-1",
	"contractName": "PhotosPortal",
	"sourceName": "contracts/PhotosPortal.sol",
	"abi": [
		{
			"inputs": [],
			"stateMutability": "nonpayable",
			"type": "constructor"
		},
		{
			"anonymous": false,
			"inputs": [
				{
					"indexed": true,
					"internalType": "address",
					"name": "from",
					"type": "address"
				},
				{
					"indexed": false,
					"internalType": "uint256",
					"name": "timestamp",
					"type": "uint256"
				},
				{
					"indexed": false,
					"internalType": "string",
					"name": "caption",
					"type": "string"
				},
				{
					"indexed": false,
					"internalType": "string",
					"name": "src",
					"type": "string"
				}
			],
			"name": "NewPhoto",
			"type": "event"
		},
		{
			"inputs": [],
			"name": "getPhotos",
			"outputs": [
				{
					"components": [
						{
							"internalType": "address",
							"name": "publisher",
							"type": "address"
						},
						{
							"internalType": "string",
							"name": "src",
							"type": "string"
						},
						{
							"internalType": "string",
							"name": "caption",
							"type": "string"
						},
						{
							"internalType": "uint256",
							"name": "timestamp",
							"type": "uint256"
						}
					],
					"internalType": "struct PhotosPortal.Photo[]",
					"name": "",
					"type": "tuple[]"
				}
			],
			"stateMutability": "view",
			"type": "function"
		},
		{
			"inputs": [],
			"name": "getRequests",
			"outputs": [
				{
					"internalType": "uint256",
					"name": "",
					"type": "uint256"
				}
			],
			"stateMutability": "view",
			"type": "function"
		},
		{
			"inputs": [],
			"name": "processRequest",
			"outputs": [],
			"stateMutability": "nonpayable",
			"type": "function"
		},
		{
			"inputs": [],
			"name": "requests",
			"outputs": [
				{
					"internalType": "uint256",
					"name": "",
					"type": "uint256"
				}
			],
			"stateMutability": "view",
			"type": "function"
		},
		{
			"inputs": [
				{
					"internalType": "string",
					"name": "_src",
					"type": "string"
				},
				{
					"internalType": "string",
					"name": "_caption",
					"type": "string"
				}
			],
			"name": "uploadPhoto",
			"outputs": [],
			"stateMutability": "nonpayable",
			"type": "function"
		}
	],
	"bytecode": "0x60806040523480156200001157600080fd5b506200004160405180606001604052806023815260200162000d4f602391396200004760201b6200042e1760201c565b620001db565b620000e7816040516024016200005e919062000154565b6040516020818303038152906040527f41304fac000000000000000000000000000000000000000000000000000000007bffffffffffffffffffffffffffffffffffffffffffffffffffffffff19166020820180517bffffffffffffffffffffffffffffffffffffffffffffffffffffffff8381831617835250505050620000ea60201b60201c565b50565b60008151905060006a636f6e736f6c652e6c6f679050602083016000808483855afa5050505050565b6000620001208262000178565b6200012c818562000183565b93506200013e81856020860162000194565b6200014981620001ca565b840191505092915050565b6000602082019050818103600083015262000170818462000113565b905092915050565b600081519050919050565b600082825260208201905092915050565b60005b83811015620001b457808201518184015260208101905062000197565b83811115620001c4576000848401525b50505050565b6000601f19601f8301169050919050565b610b6480620001eb6000396000f3fe608060405234801561001057600080fd5b50600436106100575760003560e01c80631e5db3be1461005c5780638813ce12146100785780638fc5668b14610096578063b74cb2db146100a0578063c0c07912146100be575b600080fd5b610076600480360381019061007191906105fb565b6100dc565b005b610080610221565b60405161008d919061083d565b60405180910390f35b61009e61022a565b005b6100a8610245565b6040516100b5919061083d565b60405180910390f35b6100c661024b565b6040516100d391906107f9565b60405180910390f35b600160405180608001604052803373ffffffffffffffffffffffffffffffffffffffff16815260200184815260200183815260200142815250908060018154018082558091505060019003906000526020600020906004020160009091909190915060008201518160000160006101000a81548173ffffffffffffffffffffffffffffffffffffffff021916908373ffffffffffffffffffffffffffffffffffffffff16021790555060208201518160010190805190602001906101a19291906104f0565b5060408201518160020190805190602001906101be9291906104f0565b506060820151816003015550503373ffffffffffffffffffffffffffffffffffffffff167faba42eec9c2326d2cadb6975bd4e630122c4cb8f35bb0f72a0f9df1b3c5f472e42838560405161021593929190610858565b60405180910390a25050565b60008054905090565b600160008082825461023c9190610959565b92505081905550565b60005481565b60606001805480602002602001604051908101604052809291908181526020016000905b8282101561042557838290600052602060002090600402016040518060800160405290816000820160009054906101000a900473ffffffffffffffffffffffffffffffffffffffff1673ffffffffffffffffffffffffffffffffffffffff1673ffffffffffffffffffffffffffffffffffffffff1681526020016001820180546102f890610a2d565b80601f016020809104026020016040519081016040528092919081815260200182805461032490610a2d565b80156103715780601f1061034657610100808354040283529160200191610371565b820191906000526020600020905b81548152906001019060200180831161035457829003601f168201915b5050505050815260200160028201805461038a90610a2d565b80601f01602080910402602001604051908101604052809291908181526020018280546103b690610a2d565b80156104035780601f106103d857610100808354040283529160200191610403565b820191906000526020600020905b8154815290600101906020018083116103e657829003601f168201915b505050505081526020016003820154815250508152602001906001019061026f565b50505050905090565b6104c481604051602401610442919061081b565b6040516020818303038152906040527f41304fac000000000000000000000000000000000000000000000000000000007bffffffffffffffffffffffffffffffffffffffffffffffffffffffff19166020820180517bffffffffffffffffffffffffffffffffffffffffffffffffffffffff83818316178352505050506104c7565b50565b60008151905060006a636f6e736f6c652e6c6f679050602083016000808483855afa5050505050565b8280546104fc90610a2d565b90600052602060002090601f01602090048101928261051e5760008555610565565b82601f1061053757805160ff1916838001178555610565565b82800160010185558215610565579182015b82811115610564578251825591602001919060010190610549565b5b5090506105729190610576565b5090565b5b8082111561058f576000816000905550600101610577565b5090565b60006105a66105a1846108c2565b61089d565b9050828152602081018484840111156105be57600080fd5b6105c98482856109eb565b509392505050565b600082601f8301126105e257600080fd5b81356105f2848260208601610593565b91505092915050565b6000806040838503121561060e57600080fd5b600083013567ffffffffffffffff81111561062857600080fd5b610634858286016105d1565b925050602083013567ffffffffffffffff81111561065157600080fd5b61065d858286016105d1565b9150509250929050565b60006106738383610771565b905092915050565b610684816109af565b82525050565b600061069582610903565b61069f8185610926565b9350836020820285016106b1856108f3565b8060005b858110156106ed57848403895281516106ce8582610667565b94506106d983610919565b925060208a019950506001810190506106b5565b50829750879550505050505092915050565b600061070a8261090e565b6107148185610937565b93506107248185602086016109fa565b61072d81610b1d565b840191505092915050565b60006107438261090e565b61074d8185610948565b935061075d8185602086016109fa565b61076681610b1d565b840191505092915050565b6000608083016000830151610789600086018261067b565b50602083015184820360208601526107a182826106ff565b915050604083015184820360408601526107bb82826106ff565b91505060608301516107d060608601826107db565b508091505092915050565b6107e4816109e1565b82525050565b6107f3816109e1565b82525050565b60006020820190508181036000830152610813818461068a565b905092915050565b600060208201905081810360008301526108358184610738565b905092915050565b600060208201905061085260008301846107ea565b92915050565b600060608201905061086d60008301866107ea565b818103602083015261087f8185610738565b905081810360408301526108938184610738565b9050949350505050565b60006108a76108b8565b90506108b38282610a5f565b919050565b6000604051905090565b600067ffffffffffffffff8211156108dd576108dc610aee565b5b6108e682610b1d565b9050602081019050919050565b6000819050602082019050919050565b600081519050919050565b600081519050919050565b6000602082019050919050565b600082825260208201905092915050565b600082825260208201905092915050565b600082825260208201905092915050565b6000610964826109e1565b915061096f836109e1565b9250827fffffffffffffffffffffffffffffffffffffffffffffffffffffffffffffffff038211156109a4576109a3610a90565b5b828201905092915050565b60006109ba826109c1565b9050919050565b600073ffffffffffffffffffffffffffffffffffffffff82169050919050565b6000819050919050565b82818337600083830152505050565b60005b83811015610a185780820151818401526020810190506109fd565b83811115610a27576000848401525b50505050565b60006002820490506001821680610a4557607f821691505b60208210811415610a5957610a58610abf565b5b50919050565b610a6882610b1d565b810181811067ffffffffffffffff82111715610a8757610a86610aee565b5b80604052505050565b7f4e487b7100000000000000000000000000000000000000000000000000000000600052601160045260246000fd5b7f4e487b7100000000000000000000000000000000000000000000000000000000600052602260045260246000fd5b7f4e487b7100000000000000000000000000000000000000000000000000000000600052604160045260246000fd5b6000601f19601f830116905091905056fea2646970667358221220de082dc7f415ca1e5063c9c3914c3cee979d55b8bd7df663abd0307e2264cdcf64736f6c63430008040033496e697469616c697a696e6720636f6e74726163743a2050686f746f73506f7274616c",
	"linkReferences": {},
	"deployedLinkReferences": {}
}